1TRANS20160928  689ANNUITY PVF NSCC FOR0001  102300689010555   0000000000DTCCCDT 20160928   04:06    RDT 20160928   04:13                                                                                                                                                                                   
C104579POV4579201609280048200001        00000000190620160927P                                                                                                                                                                                                                                               
C120555055500000001750000000175PVFCPL                                                                                                                                                                                                                                                                       
C130112010011                      71907F838VA113018002           FI                                                                                          2010VAR                    NNY                                                                                                                
C130212010011                      0000000028050201CR  0000000020700000TP  0000000027723188SU  0000000000700000TW  0000000000150000OE                                                                                                                                                                       
C130212010011                      0000000000000000TZ  0000000020700000VO                                                                                                                                                                                                                                   

